{
  "contractName": "Certificado",
  "abi": [
    {
      "inputs": [
        {
          "internalType": "int256",
          "name": "",
          "type": "int256"
        }
      ],
      "name": "certificates",
      "outputs": [
        {
          "internalType": "int256",
          "name": "id",
          "type": "int256"
        },
        {
          "internalType": "string",
          "name": "nome",
          "type": "string"
        },
        {
          "internalType": "string",
          "name": "curso",
          "type": "string"
        },
        {
          "internalType": "string",
          "name": "dtEmissao",
          "type": "string"
        },
        {
          "internalType": "string",
          "name": "status",
          "type": "string"
        }
      ],
      "stateMutability": "view",
      "type": "function",
      "constant": true
    },
    {
      "inputs": [
        {
          "internalType": "int256",
          "name": "id",
          "type": "int256"
        },
        {
          "internalType": "string",
          "name": "nome",
          "type": "string"
        },
        {
          "internalType": "string",
          "name": "curso",
          "type": "string"
        },
        {
          "internalType": "string",
          "name": "dtEmissao",
          "type": "string"
        }
      ],
      "name": "registerCertificate",
      "outputs": [],
      "stateMutability": "nonpayable",
      "type": "function"
    },
    {
      "inputs": [
        {
          "internalType": "int256",
          "name": "id",
          "type": "int256"
        }
      ],
      "name": "getCertificate",
      "outputs": [
        {
          "internalType": "string",
          "name": "nome",
          "type": "string"
        },
        {
          "internalType": "string",
          "name": "curso",
          "type": "string"
        },
        {
          "internalType": "string",
          "name": "dtEmissao",
          "type": "string"
        },
        {
          "internalType": "string",
          "name": "status",
          "type": "string"
        }
      ],
      "stateMutability": "view",
      "type": "function",
      "constant": true
    },
    {
      "inputs": [
        {
          "internalType": "int256",
          "name": "id",
          "type": "int256"
        }
      ],
      "name": "revokeCertificate",
      "outputs": [],
      "stateMutability": "nonpayable",
      "type": "function"
    }
  ],
  "bytecode": "0x6080604052348015600f57600080fd5b506110118061001f6000396000f3fe608060405234801561001057600080fd5b506004361061004c5760003560e01c80630a968997146100515780631e571284146100845780636f861cfb146100a0578063cff90f47146100bc575b600080fd5b61006b60048036038101906100669190610869565b6100f0565b60405161007b9493929190610926565b60405180910390f35b61009e60048036038101906100999190610869565b6103e5565b005b6100ba60048036038101906100b59190610abc565b610498565b005b6100d660048036038101906100d19190610869565b6105c9565b6040516100e7959493929190610b86565b60405180910390f35b6060806060806000806000878152602001908152602001600020600001540361014e576040517f08c379a000000000000000000000000000000000000000000000000000000000815260040161014590610c41565b60405180910390fd5b60008060008781526020019081526020016000206040518060a00160405290816000820154815260200160018201805461018790610c90565b80601f01602080910402602001604051908101604052809291908181526020018280546101b390610c90565b80156102005780601f106101d557610100808354040283529160200191610200565b820191906000526020600020905b8154815290600101906020018083116101e357829003601f168201915b5050505050815260200160028201805461021990610c90565b80601f016020809104026020016040519081016040528092919081815260200182805461024590610c90565b80156102925780601f1061026757610100808354040283529160200191610292565b820191906000526020600020905b81548152906001019060200180831161027557829003601f168201915b505050505081526020016003820180546102ab90610c90565b80601f01602080910402602001604051908101604052809291908181526020018280546102d790610c90565b80156103245780601f106102f957610100808354040283529160200191610324565b820191906000526020600020905b81548152906001019060200180831161030757829003601f168201915b5050505050815260200160048201805461033d90610c90565b80601f016020809104026020016040519081016040528092919081815260200182805461036990610c90565b80156103b65780601f1061038b576101008083540402835291602001916103b6565b820191906000526020600020905b81548152906001019060200180831161039957829003601f168201915b505050505081525050905080602001518160400151826060015183608001519450945094509450509193509193565b6000806000838152602001908152602001600020600001540361043d576040517f08c379a000000000000000000000000000000000000000000000000000000000815260040161043490610c41565b60405180910390fd5b6040518060400160405280600981526020017f63616e63656c61646f000000000000000000000000000000000000000000000081525060008083815260200190815260200160002060040190816104949190610e77565b5050565b600080600086815260200190815260200160002060000154146104f0576040517f08c379a00000000000000000000000000000000000000000000000000000000081526004016104e790610fbb565b60405180910390fd5b6040518060a001604052808581526020018481526020018381526020018281526020016040518060400160405280600681526020017f76616c69646f000000000000000000000000000000000000000000000000000081525081525060008086815260200190815260200160002060008201518160000155602082015181600101908161057d9190610e77565b5060408201518160020190816105939190610e77565b5060608201518160030190816105a99190610e77565b5060808201518160040190816105bf9190610e77565b5090505050505050565b60006020528060005260406000206000915090508060000154908060010180546105f290610c90565b80601f016020809104026020016040519081016040528092919081815260200182805461061e90610c90565b801561066b5780601f106106405761010080835404028352916020019161066b565b820191906000526020600020905b81548152906001019060200180831161064e57829003601f168201915b50505050509080600201805461068090610c90565b80601f01602080910402602001604051908101604052809291908181526020018280546106ac90610c90565b80156106f95780601f106106ce576101008083540402835291602001916106f9565b820191906000526020600020905b8154815290600101906020018083116106dc57829003601f168201915b50505050509080600301805461070e90610c90565b80601f016020809104026020016040519081016040528092919081815260200182805461073a90610c90565b80156107875780601f1061075c57610100808354040283529160200191610787565b820191906000526020600020905b81548152906001019060200180831161076a57829003601f168201915b50505050509080600401805461079c90610c90565b80601f01602080910402602001604051908101604052809291908181526020018280546107c890610c90565b80156108155780601f106107ea57610100808354040283529160200191610815565b820191906000526020600020905b8154815290600101906020018083116107f857829003601f168201915b5050505050905085565b6000604051905090565b600080fd5b600080fd5b6000819050919050565b61084681610833565b811461085157600080fd5b50565b6000813590506108638161083d565b92915050565b60006020828403121561087f5761087e610829565b5b600061088d84828501610854565b91505092915050565b600081519050919050565b600082825260208201905092915050565b60005b838110156108d05780820151818401526020810190506108b5565b60008484015250505050565b6000601f19601f8301169050919050565b60006108f882610896565b61090281856108a1565b93506109128185602086016108b2565b61091b816108dc565b840191505092915050565b6000608082019050818103600083015261094081876108ed565b9050818103602083015261095481866108ed565b9050818103604083015261096881856108ed565b9050818103606083015261097c81846108ed565b905095945050505050565b600080fd5b600080fd5b7f4e487b7100000000000000000000000000000000000000000000000000000000600052604160045260246000fd5b6109c9826108dc565b810181811067ffffffffffffffff821117156109e8576109e7610991565b5b80604052505050565b60006109fb61081f565b9050610a0782826109c0565b919050565b600067ffffffffffffffff821115610a2757610a26610991565b5b610a30826108dc565b9050602081019050919050565b82818337600083830152505050565b6000610a5f610a5a84610a0c565b6109f1565b905082815260208101848484011115610a7b57610a7a61098c565b5b610a86848285610a3d565b509392505050565b600082601f830112610aa357610aa2610987565b5b8135610ab3848260208601610a4c565b91505092915050565b60008060008060808587031215610ad657610ad5610829565b5b6000610ae487828801610854565b945050602085013567ffffffffffffffff811115610b0557610b0461082e565b5b610b1187828801610a8e565b935050604085013567ffffffffffffffff811115610b3257610b3161082e565b5b610b3e87828801610a8e565b925050606085013567ffffffffffffffff811115610b5f57610b5e61082e565b5b610b6b87828801610a8e565b91505092959194509250565b610b8081610833565b82525050565b600060a082019050610b9b6000830188610b77565b8181036020830152610bad81876108ed565b90508181036040830152610bc181866108ed565b90508181036060830152610bd581856108ed565b90508181036080830152610be981846108ed565b90509695505050505050565b7f436572746966696361646f206e616f20656e636f6e747261646f000000000000600082015250565b6000610c2b601a836108a1565b9150610c3682610bf5565b602082019050919050565b60006020820190508181036000830152610c5a81610c1e565b9050919050565b7f4e487b7100000000000000000000000000000000000000000000000000000000600052602260045260246000fd5b60006002820490506001821680610ca857607f821691505b602082108103610cbb57610cba610c61565b5b50919050565b60008190508160005260206000209050919050565b60006020601f8301049050919050565b600082821b905092915050565b600060088302610d237fffffffffffffffffffffffffffffffffffffffffffffffffffffffffffffffff82610ce6565b610d2d8683610ce6565b95508019841693508086168417925050509392505050565b6000819050919050565b6000819050919050565b6000610d74610d6f610d6a84610d45565b610d4f565b610d45565b9050919050565b6000819050919050565b610d8e83610d59565b610da2610d9a82610d7b565b848454610cf3565b825550505050565b600090565b610db7610daa565b610dc2818484610d85565b505050565b5b81811015610de657610ddb600082610daf565b600181019050610dc8565b5050565b601f821115610e2b57610dfc81610cc1565b610e0584610cd6565b81016020851015610e14578190505b610e28610e2085610cd6565b830182610dc7565b50505b505050565b600082821c905092915050565b6000610e4e60001984600802610e30565b1980831691505092915050565b6000610e678383610e3d565b9150826002028217905092915050565b610e8082610896565b67ffffffffffffffff811115610e9957610e98610991565b5b610ea38254610c90565b610eae828285610dea565b600060209050601f831160018114610ee15760008415610ecf578287015190505b610ed98582610e5b565b865550610f41565b601f198416610eef86610cc1565b60005b82811015610f1757848901518255600182019150602085019450602081019050610ef2565b86831015610f345784890151610f30601f891682610e3d565b8355505b6001600288020188555050505b505050505050565b7f436572746966696361646f206a61207265676973747261646f20636f6d20657360008201527f7365204944000000000000000000000000000000000000000000000000000000602082015250565b6000610fa56025836108a1565b9150610fb082610f49565b604082019050919050565b60006020820190508181036000830152610fd481610f98565b905091905056fea26469706673582212208c94511b8a6796abbd5547c0b284f77a9cf8a5788e170995b3978d826da9a4c164736f6c634300081c0033",
  "immutableReferences": {},
  "source": "// SPDX-License-Identifier: MIT\npragma solidity >=0.4.22 <0.9.0;\n\ncontract Certificado {\n\n    struct Certificate {\n        int id;\n        string nome;\n        string curso;\n        string dtEmissao;\n        string status;\n    }\n\n    mapping(int => Certificate) public certificates;\n\n    function registerCertificate(int id, string memory nome, string memory curso, string memory dtEmissao) public {\n        require(certificates[id].id == 0, \"Certificado ja registrado com esse ID\");\n        certificates[id] = Certificate(id, nome, curso, dtEmissao, \"valido\");\n    }\n\n    function getCertificate(int id) public view returns (string memory nome, string memory curso, string memory dtEmissao, string memory status) {\n        require(certificates[id].id != 0, 'Certificado nao encontrado');\n        Certificate memory cert = certificates[id];\n        return (cert.nome, cert.curso, cert.dtEmissao, cert.status);\n    }\n\n    function revokeCertificate(int id) public {\n        require(certificates[id].id != 0, \"Certificado nao encontrado\");\n        certificates[id].status = \"cancelado\";\n    }\n}",
  "sourcePath": "/Users/lilia/Desktop/ESPM/ESPM 8.0/Tecnologias Emergente/aula/atv3/contracts/Contrato.sol",
  "compiler": {
    "name": "solc",
    "version": "0.8.28+commit.7893614a.Emscripten.clang"
  },
  "schemaVersion": "3.4.16",
  "updatedAt": "2024-11-15T02:31:05.326Z",
  "networkType": "ethereum",
  "devdoc": {
    "kind": "dev",
    "methods": {},
    "version": 1
  },
  "userdoc": {
    "kind": "user",
    "methods": {},
    "version": 1
  }
}